{
  "contractName": "TLSDID",
  "abi": [
    {
      "inputs": [],
      "payable": false,
      "stateMutability": "nonpayable",
      "type": "constructor"
    },
    {
      "constant": true,
      "inputs": [
        {
          "internalType": "uint256",
          "name": "",
          "type": "uint256"
        }
      ],
      "name": "attributes",
      "outputs": [
        {
          "internalType": "string",
          "name": "name",
          "type": "string"
        },
        {
          "internalType": "string",
          "name": "value",
          "type": "string"
        }
      ],
      "payable": false,
      "stateMutability": "view",
      "type": "function"
    },
    {
      "constant": true,
      "inputs": [],
      "name": "domain",
      "outputs": [
        {
          "internalType": "string",
          "name": "",
          "type": "string"
        }
      ],
      "payable": false,
      "stateMutability": "view",
      "type": "function"
    },
    {
      "constant": true,
      "inputs": [],
      "name": "expiry",
      "outputs": [
        {
          "internalType": "uint64",
          "name": "",
          "type": "uint64"
        }
      ],
      "payable": false,
      "stateMutability": "view",
      "type": "function"
    },
    {
      "constant": true,
      "inputs": [
        {
          "internalType": "uint256",
          "name": "",
          "type": "uint256"
        }
      ],
      "name": "flags",
      "outputs": [
        {
          "internalType": "string",
          "name": "",
          "type": "string"
        }
      ],
      "payable": false,
      "stateMutability": "view",
      "type": "function"
    },
    {
      "constant": true,
      "inputs": [],
      "name": "signature",
      "outputs": [
        {
          "internalType": "string",
          "name": "",
          "type": "string"
        }
      ],
      "payable": false,
      "stateMutability": "view",
      "type": "function"
    },
    {
      "constant": false,
      "inputs": [
        {
          "internalType": "string",
          "name": "_domain",
          "type": "string"
        }
      ],
      "name": "setDomain",
      "outputs": [],
      "payable": false,
      "stateMutability": "nonpayable",
      "type": "function"
    },
    {
      "constant": false,
      "inputs": [
        {
          "internalType": "string",
          "name": "_signature",
          "type": "string"
        }
      ],
      "name": "setSignature",
      "outputs": [],
      "payable": false,
      "stateMutability": "nonpayable",
      "type": "function"
    },
    {
      "constant": false,
      "inputs": [
        {
          "internalType": "uint64",
          "name": "_expiry",
          "type": "uint64"
        }
      ],
      "name": "setExpiry",
      "outputs": [],
      "payable": false,
      "stateMutability": "nonpayable",
      "type": "function"
    },
    {
      "constant": false,
      "inputs": [
        {
          "internalType": "string",
          "name": "_name",
          "type": "string"
        },
        {
          "internalType": "string",
          "name": "_value",
          "type": "string"
        }
      ],
      "name": "addAttribute",
      "outputs": [],
      "payable": false,
      "stateMutability": "nonpayable",
      "type": "function"
    },
    {
      "constant": true,
      "inputs": [],
      "name": "getAttributes",
      "outputs": [
        {
          "components": [
            {
              "internalType": "string",
              "name": "name",
              "type": "string"
            },
            {
              "internalType": "string",
              "name": "value",
              "type": "string"
            }
          ],
          "internalType": "struct TLSDID.Attribute[]",
          "name": "",
          "type": "tuple[]"
        }
      ],
      "payable": false,
      "stateMutability": "view",
      "type": "function"
    }
  ],
  "bytecode": "0x6080604052336000806101000a81548173ffffffffffffffffffffffffffffffffffffffff021916908373ffffffffffffffffffffffffffffffffffffffff16021790555034801561005057600080fd5b50336000806101000a81548173ffffffffffffffffffffffffffffffffffffffff021916908373ffffffffffffffffffffffffffffffffffffffff160217905550610f8a806100a06000396000f3fe608060405234801561001057600080fd5b506004361061009e5760003560e01c8063a2eccb6f11610066578063a2eccb6f14610147578063c2fb26a614610163578063d05dcc6a14610181578063e184c9be146101b2578063e5eab096146101d05761009e565b8063152583de146100a35780632782fb22146100c15780632ba56834146100dd57806351ff4847146100f957806381274d3a14610117575b600080fd5b6100ab6101ec565b6040516100b89190610dbb565b60405180910390f35b6100db60048036036100d69190810190610b61565b61038f565b005b6100f760048036036100f29190810190610ba6565b6103fe565b005b610101610564565b60405161010e9190610ddd565b60405180910390f35b610131600480360361012c9190810190610c1b565b610602565b60405161013e9190610ddd565b60405180910390f35b610161600480360361015c9190810190610c44565b6106bb565b005b61016b610740565b6040516101789190610ddd565b60405180910390f35b61019b60048036036101969190810190610c1b565b6107de565b6040516101a9929190610dff565b60405180910390f35b6101ba61093f565b6040516101c79190610e36565b60405180910390f35b6101ea60048036036101e59190810190610b61565b610959565b005b60606005805480602002602001604051908101604052809291908181526020016000905b828210156103865783829060005260206000209060020201604051806040016040529081600082018054600181600116156101000203166002900480601f0160208091040260200160405190810160405280929190818152602001828054600181600116156101000203166002900480156102cc5780601f106102a1576101008083540402835291602001916102cc565b820191906000526020600020905b8154815290600101906020018083116102af57829003601f168201915b50505050508152602001600182018054600181600116156101000203166002900480601f01602080910402602001604051908101604052809291908181526020018280546001816001161561010002031660029004801561036e5780601f106103435761010080835404028352916020019161036e565b820191906000526020600020905b81548152906001019060200180831161035157829003601f168201915b50505050508152505081526020019060010190610210565b50505050905090565b6000809054906101000a900473ffffffffffffffffffffffffffffffffffffffff1673ffffffffffffffffffffffffffffffffffffffff163373ffffffffffffffffffffffffffffffffffffffff16146103e857600080fd5b8181600491906103f99291906109c8565b505050565b6000809054906101000a900473ffffffffffffffffffffffffffffffffffffffff1673ffffffffffffffffffffffffffffffffffffffff163373ffffffffffffffffffffffffffffffffffffffff161461045757600080fd5b6005604051806040016040528086868080601f016020809104026020016040519081016040528093929190818152602001838380828437600081840152601f19601f82011690508083019250505050505050815260200184848080601f016020809104026020016040519081016040528093929190818152602001838380828437600081840152601f19601f8201169050808301925050505050505081525090806001815401808255809150509060018203906000526020600020906002020160009091929091909150600082015181600001908051906020019061053d929190610a48565b50602082015181600101908051906020019061055a929190610a48565b5050505050505050565b60048054600181600116156101000203166002900480601f0160208091040260200160405190810160405280929190818152602001828054600181600116156101000203166002900480156105fa5780601f106105cf576101008083540402835291602001916105fa565b820191906000526020600020905b8154815290600101906020018083116105dd57829003601f168201915b505050505081565b6002818154811061060f57fe5b906000526020600020016000915090508054600181600116156101000203166002900480601f0160208091040260200160405190810160405280929190818152602001828054600181600116156101000203166002900480156106b35780601f10610688576101008083540402835291602001916106b3565b820191906000526020600020905b81548152906001019060200180831161069657829003601f168201915b505050505081565b6000809054906101000a900473ffffffffffffffffffffffffffffffffffffffff1673ffffffffffffffffffffffffffffffffffffffff163373ffffffffffffffffffffffffffffffffffffffff161461071457600080fd5b80600360006101000a81548167ffffffffffffffff021916908367ffffffffffffffff16021790555050565b60018054600181600116156101000203166002900480601f0160208091040260200160405190810160405280929190818152602001828054600181600116156101000203166002900480156107d65780601f106107ab576101008083540402835291602001916107d6565b820191906000526020600020905b8154815290600101906020018083116107b957829003601f168201915b505050505081565b600581815481106107eb57fe5b9060005260206000209060020201600091509050806000018054600181600116156101000203166002900480601f0160208091040260200160405190810160405280929190818152602001828054600181600116156101000203166002900480156108975780601f1061086c57610100808354040283529160200191610897565b820191906000526020600020905b81548152906001019060200180831161087a57829003601f168201915b505050505090806001018054600181600116156101000203166002900480601f0160208091040260200160405190810160405280929190818152602001828054600181600116156101000203166002900480156109355780601f1061090a57610100808354040283529160200191610935565b820191906000526020600020905b81548152906001019060200180831161091857829003601f168201915b5050505050905082565b600360009054906101000a900467ffffffffffffffff1681565b6000809054906101000a900473ffffffffffffffffffffffffffffffffffffffff1673ffffffffffffffffffffffffffffffffffffffff163373ffffffffffffffffffffffffffffffffffffffff16146109b257600080fd5b8181600191906109c39291906109c8565b505050565b828054600181600116156101000203166002900490600052602060002090601f016020900481019282601f10610a0957803560ff1916838001178555610a37565b82800160010185558215610a37579182015b82811115610a36578235825591602001919060010190610a1b565b5b509050610a449190610ac8565b5090565b828054600181600116156101000203166002900490600052602060002090601f016020900481019282601f10610a8957805160ff1916838001178555610ab7565b82800160010185558215610ab7579182015b82811115610ab6578251825591602001919060010190610a9b565b5b509050610ac49190610ac8565b5090565b610aea91905b80821115610ae6576000816000905550600101610ace565b5090565b90565b60008083601f840112610aff57600080fd5b8235905067ffffffffffffffff811115610b1857600080fd5b602083019150836001820283011115610b3057600080fd5b9250929050565b600081359050610b4681610f19565b92915050565b600081359050610b5b81610f30565b92915050565b60008060208385031215610b7457600080fd5b600083013567ffffffffffffffff811115610b8e57600080fd5b610b9a85828601610aed565b92509250509250929050565b60008060008060408587031215610bbc57600080fd5b600085013567ffffffffffffffff811115610bd657600080fd5b610be287828801610aed565b9450945050602085013567ffffffffffffffff811115610c0157600080fd5b610c0d87828801610aed565b925092505092959194509250565b600060208284031215610c2d57600080fd5b6000610c3b84828501610b37565b91505092915050565b600060208284031215610c5657600080fd5b6000610c6484828501610b4c565b91505092915050565b6000610c798383610d68565b905092915050565b6000610c8c82610e61565b610c968185610e84565b935083602082028501610ca885610e51565b8060005b85811015610ce45784840389528151610cc58582610c6d565b9450610cd083610e77565b925060208a01995050600181019050610cac565b50829750879550505050505092915050565b6000610d0182610e6c565b610d0b8185610e95565b9350610d1b818560208601610ed5565b610d2481610f08565b840191505092915050565b6000610d3a82610e6c565b610d448185610ea6565b9350610d54818560208601610ed5565b610d5d81610f08565b840191505092915050565b60006040830160008301518482036000860152610d858282610cf6565b91505060208301518482036020860152610d9f8282610cf6565b9150508091505092915050565b610db581610ec1565b82525050565b60006020820190508181036000830152610dd58184610c81565b905092915050565b60006020820190508181036000830152610df78184610d2f565b905092915050565b60006040820190508181036000830152610e198185610d2f565b90508181036020830152610e2d8184610d2f565b90509392505050565b6000602082019050610e4b6000830184610dac565b92915050565b6000819050602082019050919050565b600081519050919050565b600081519050919050565b6000602082019050919050565b600082825260208201905092915050565b600082825260208201905092915050565b600082825260208201905092915050565b6000819050919050565b600067ffffffffffffffff82169050919050565b60005b83811015610ef3578082015181840152602081019050610ed8565b83811115610f02576000848401525b50505050565b6000601f19601f8301169050919050565b610f2281610eb7565b8114610f2d57600080fd5b50565b610f3981610ec1565b8114610f4457600080fd5b5056fea365627a7a723158204f5fad77bb39f56f7d18e75c6319794dc9cb661fb692765a1590da67155bdd796c6578706572696d656e74616cf564736f6c63430005100040",
  "source": "// SPDX-License-Identifier: UNLICENSED\npragma solidity >=0.4.22 <0.8.0;\npragma experimental ABIEncoderV2;\n\ncontract TLSDID {\n    address private owner = msg.sender;\n    string public domain;\n    string[] public flags;\n    uint64 public expiry;\n    string public signature;\n\n    //Stores public key\n    Attribute[] public attributes;\n\n    constructor() public {\n        owner = msg.sender;\n    }\n\n    struct Attribute {\n        string name;\n        string value;\n    }\n\n    modifier onlyOwner() {\n        require(msg.sender == owner);\n        _;\n    }\n\n    function setDomain(string calldata _domain) external onlyOwner {\n        domain = _domain;\n    }\n\n    function setSignature(string calldata _signature) external onlyOwner {\n        signature = _signature;\n    }\n\n    function setExpiry(uint64 _expiry) external onlyOwner {\n        expiry = _expiry;\n    }\n\n    function addAttribute(string calldata _name, string calldata _value)\n        external\n        onlyOwner\n    {\n        attributes.push(Attribute(_name, _value));\n    }\n\n    function getAttributes() external view returns (Attribute[] memory) {\n        return attributes;\n    }\n}\n",
  "sourcePath": "/Users/kilian/Documents/tls-did-project/tls-did-registry/contracts/TLSDID.sol",
  "compiler": {
    "name": "solc",
    "version": "0.5.16+commit.9c3226ce.Emscripten.clang"
  },
  "schemaVersion": "3.2.4",
  "updatedAt": "2020-10-05T15:07:08.186Z",
  "networkType": "ethereum",
  "devdoc": {
    "methods": {}
  },
  "userdoc": {
    "methods": {}
  }
}