{
  "contractName": "TLSDIDSCRegistry",
  "abi": [
    {
      "constant": false,
      "inputs": [
        {
          "internalType": "string",
          "name": "_did",
          "type": "string"
        },
        {
          "internalType": "address",
          "name": "_address",
          "type": "address"
        }
      ],
      "name": "addTLSDIDContract",
      "outputs": [],
      "payable": false,
      "stateMutability": "nonpayable",
      "type": "function"
    },
    {
      "constant": true,
      "inputs": [
        {
          "internalType": "string",
          "name": "_did",
          "type": "string"
        }
      ],
      "name": "getTSLDIDContracts",
      "outputs": [
        {
          "internalType": "address[]",
          "name": "",
          "type": "address[]"
        }
      ],
      "payable": false,
      "stateMutability": "view",
      "type": "function"
    }
  ],
  "bytecode": "0x608060405234801561001057600080fd5b506103d6806100206000396000f3fe608060405234801561001057600080fd5b50600436106100365760003560e01c806315d538ae1461003b57806323bd3e0714610109575b600080fd5b6100b26004803603602081101561005157600080fd5b810190808035906020019064010000000081111561006e57600080fd5b82018360208201111561008057600080fd5b803590602001918460018302840111640100000000831117156100a257600080fd5b90919293919293905050506101a2565b6040518080602001828103825283818151815260200191508051906020019060200280838360005b838110156100f55780820151818401526020810190506100da565b505050509050019250505060405180910390f35b6101a06004803603604081101561011f57600080fd5b810190808035906020019064010000000081111561013c57600080fd5b82018360208201111561014e57600080fd5b8035906020019184600183028401116401000000008311171561017057600080fd5b9091929391929390803573ffffffffffffffffffffffffffffffffffffffff16906020019092919050505061025b565b005b606060008383604051808383808284378083019250505092505050908152602001604051809103902060000180548060200260200160405190810160405280929190818152602001828054801561024e57602002820191906000526020600020905b8160009054906101000a900473ffffffffffffffffffffffffffffffffffffffff1673ffffffffffffffffffffffffffffffffffffffff1681526020019060010190808311610204575b5050505050905092915050565b6000808484604051808383808284378083019250505092505050908152602001604051809103902090508060010160008373ffffffffffffffffffffffffffffffffffffffff1673ffffffffffffffffffffffffffffffffffffffff16815260200190815260200160002060009054906101000a900460ff1661039b57806000018290806001815401808255809150509060018203906000526020600020016000909192909190916101000a81548173ffffffffffffffffffffffffffffffffffffffff021916908373ffffffffffffffffffffffffffffffffffffffff1602179055505060018160010160008473ffffffffffffffffffffffffffffffffffffffff1673ffffffffffffffffffffffffffffffffffffffff16815260200190815260200160002060006101000a81548160ff0219169083151502179055505b5050505056fea265627a7a723158204c03ed690b301ea1821366c1e61517efd7addb8a45d9a0027b786275fe6c00db64736f6c63430005100032",
  "source": "// SPDX-License-Identifier: UNLICENSED\npragma solidity >=0.4.22 <0.8.0;\n\ncontract TLSDIDSCRegistry {\n    //TODO rename solve with events\n    struct AddressContainer {\n        address[] addresses;\n        mapping(address => bool) contained;\n    }\n\n    // We map to an array because\n    mapping(string => AddressContainer) private registry;\n\n    /// @notice Store mapping from DID to SC address\n    /// @dev The addresses are stored an array to make sure an existing mapping can not be overwriten.\n    /// @param _did The DID that mapps to a smart contract\n    /// @param _address The address of the smart contract\n    function addTLSDIDContract(string calldata _did, address _address)\n        external\n    {\n        AddressContainer storage container = registry[_did];\n        if (!container.contained[_address]) {\n            container.addresses.push(_address);\n            container.contained[_address] = true;\n        }\n    }\n\n    function getTSLDIDContracts(string calldata _did)\n        external\n        view\n        returns (address[] memory)\n    {\n        return registry[_did].addresses;\n    }\n}\n",
  "sourcePath": "/Users/kilian/Documents/tls-did-project/tls-did-registry/contracts/TLSDIDSCRegistry.sol",
  "compiler": {
    "name": "solc",
    "version": "0.5.16+commit.9c3226ce.Emscripten.clang"
  },
  "schemaVersion": "3.2.4",
  "updatedAt": "2020-10-13T12:16:05.630Z",
  "networkType": "ethereum",
  "devdoc": {
    "methods": {
      "addTLSDIDContract(string,address)": {
        "details": "The addresses are stored an array to make sure an existing mapping can not be overwriten.",
        "params": {
          "_address": "The address of the smart contract",
          "_did": "The DID that mapps to a smart contract"
        }
      }
    }
  },
  "userdoc": {
    "methods": {
      "addTLSDIDContract(string,address)": {
        "notice": "Store mapping from DID to SC address"
      }
    }
  }
}